:100000000C9463000C948B000C948B000C9474087B
:100010000C9474080C9474080C948B000C948B0052
:100020000C948B000C948B000C948B000C948B0024
:100030000C948B000C948B000C948B000C948B0014
:100040000C94D2070C948B000C9442080C941C085E
:100050000C948B000C948B000C948B000C948B00F4
:100060000C94B3060C948B000000000024002700C1
:100070002A0000000008000201000003040700003D
:1000800000000000000000000000230026002900FE
:1000900000000000250028002B00040404040404D0
:1000A0000404020202020202030303030303010227
:1000B00004081020408001020408102001020408F6
:1000C0001020EC085D0E11241FBECFEFD8E0DEBF7C
:1000D000CDBF24E0AAEAB2E001C01D92AC39B2075C
:1000E000E1F712E0A0E0B1E0E6EDF1E202C0059038
:1000F0000D92AA3AB107D9F710E0C2E6D0E004C0E9
:100100002197FE010E94B80EC136D107C9F70E949F
:10011000CB090C94DE100C94000020916B03260F89
:100120003327331F21323105ECF420919103FC0178
:1001300090E080E0243069F082E00895A0916B03A4
:100140002191AC01475B5C4FA40FB52FB11D2C93DF
:100150000196861798F380916B03680F60936B0389
:1001600080E0089581E00895089508950895E0914C
:10017000400380913F03E81730F4F0E0E15EFC4F6C
:10018000808190E008958FEF9FEF08959091400354
:1001900080913F032FEF3FEF981748F4E92FF0E0ED
:1001A000E15EFC4F208130E09F5F90934003C901E6
:1001B000089580913F0390914003891B990B089506
:1001C000CF92DF92EF92FF920F931F93CF93DF9323
:1001D0007C01CB018A0120911E03222389F0EB01CF
:1001E0006B01C40ED51ECC15DD0569F06991D701F0
:1001F000ED91FC910190F081E02DC7010995F3CFBD
:10020000642F0E948D00C801DF91CF911F910F9143
:10021000FF90EF90DF90CF900895CF93DF931F92E0
:10022000CDB7DEB7698320911E032223F9F0209118
:100230004103203258F021E030E0FC013383228377
:1002400090E080E00F90DF91CF910895809142037C
:10025000E82FF0E0E250FD4F998190838F5F80930B
:1002600042038093410381E090E0ECCF61E0CE0156
:1002700001960E948D00F7CF833081F028F4813001
:1002800099F08230A9F008958730A9F08830C9F03C
:100290008430B1F4809180008F7D03C08091800014
:1002A0008F7780938000089584B58F7784BD0895FB
:1002B00084B58F7DFBCF8091B0008F778093B000A5
:1002C00008958091B0008F7DF9CFCF93DF93282FD1
:1002D00030E0F901EE58FF4F8491F901E255FF4FEC
:1002E000D491F901E656FF4FC491CC23A1F08111BE
:1002F0000E943C01EC2FF0E0EE0FFF1FEA57FF4F8A
:10030000A591B491EC91ED2381E090E009F480E0B7
:10031000DF91CF91089580E090E0FACF1F93CF93C3
:10032000DF93282F30E0F901EE58FF4F8491F90157
:10033000E255FF4FD491F901E656FF4FC491CC230B
:10034000A9F0162F81110E943C01EC2FF0E0EE0F76
:10035000FF1FE057FF4FA591B4918FB7F894EC9130
:10036000111108C0D095DE23DC938FBFDF91CF91B0
:100370001F910895DE2BF8CF1092910381E08093B6
:1003800093031092920361E082E10E948E0161E08A
:1003900083E10E948E01E9EBF0E080818E7F808313
:1003A00080818D7F808388E48093B80085E480938A
:1003B000BC000895CF93DF9391E090934803882386
:1003C000B9F0C091B800D091BA008091BC008A7B8E
:1003D0008093BC0060E082E10E948E0160E083E1D6
:1003E0000E948E010E94BC01D093BA00C093B80055
:1003F000DF91CF910895CF93DF9390E0FC01E25518
:10040000FF4F249186569F4FFC0184918823C9F0A9
:1004100090E0880F991FFC01E859FF4FA591B49116
:10042000FC01E057FF4FC591D49161110DC09FB7FA
:10043000F8948C91209582238C938881282328839B
:100440009FBFDF91CF910895623051F49FB7F89428
:100450003C91822F809583238C93E8812E2BEFCFC4
:100460008FB7F894EC912E2B2C938FBFEACF3FB728
:10047000F8948091FA029091FB02A091FC02B09155
:10048000FD0226B5A89B05C02F3F19F00196A11DBE
:10049000B11D3FBFBA2FA92F982F8827BC01CD01CE
:1004A000620F711D811D911D42E0660F771F881F2D
:1004B000991F4A95D1F708958F929F92AF92BF925C
:1004C000CF92DF92EF92FF924B015C010E943702C4
:1004D0006B017C010E9437026C197D098E099F090E
:1004E000683E734081059105A8F321E0821A9108C6
:1004F000A108B10888EEC80E83E0D81EE11CF11CEB
:1005000081149104A104B10429F7FF90EF90DF90CA
:10051000CF90BF90AF909F908F900895DB0114967D
:100520004D915C9115976D917C91DC01ED91FC9161
:100530000280F381E02D0994AF92BF92CF92DF92B7
:10054000EF92FF920F931F93CF93DF936C017B0188
:100550008B01040F151FEB015E01AE18BF08C01719
:10056000D10759F06991D601ED91FC910190F0818C
:10057000E02DC6010995892B79F7C501DF91CF914F
:100580001F910F91FF90EF90DF90CF90BF90AF90B1
:100590000895FC01538D448D252F30E0842F90E089
:1005A000821B930B541710F0CF960895019708956E
:1005B000FC01918D828D981761F0A28DAE0FBF2F37
:1005C000B11D5D968C91928D9F5F9F73928F90E08D
:1005D00008958FEF9FEF0895FC01918D828D9817FC
:1005E00031F0828DE80FF11D858D90E008958FEF39
:1005F0009FEF0895FC01918D228D892F90E0805C02
:100600009F4F821B91098F739927089583EC93E084
:100610000E94FA0221E0892B09F420E0822F08953C
:1006200080E090E0892B29F00E94060381110C9450
:1006300000000895FC01A48DA80FB92FB11DA35A85
:10064000BF4F2C91848D90E001968F739927848FF2
:10065000A689B7892C93A089B1898C918370806415
:100660008C93938D848D981306C00288F389E02DB6
:1006700080818F7D80830895EF92FF920F931F9367
:10068000CF93DF93EC0181E0888F9B8D8C8D981345
:100690001AC0E889F989808185FF15C09FB7F89451
:1006A000EE89FF896083E889F9898081837080649D
:1006B00080839FBF81E090E0DF91CF911F910F91E8
:1006C000FF90EF900895F62E0B8D10E00F5F1F4FF7
:1006D0000F731127E02E8C8D8E110CC00FB607FC06
:1006E000FACFE889F989808185FFF5CFCE010E9494
:1006F0001A03F1CFEB8DEC0FFD2FF11DE35AFF4FE5
:10070000F0829FB7F8940B8FEA89FB898081806221
:10071000CFCFCF93DF93EC01888D8823B9F0AA89DE
:10072000BB89E889F9898C9185FD03C0808186FDAC
:100730000DC00FB607FCF7CF8C9185FFF2CF8081FB
:1007400085FFEDCFCE010E941A03E9CFDF91CF9153
:1007500008952091ED023091EE022817390771F4C7
:100760009091EB028091EC02981741F0E091EB023E
:10077000F0E0E555FD4F808190E008958FEF9FEF09
:100780000895EF92FF920F931F93CF93DF93DC01B5
:100790005C96ED90FC905D97E114F10479F481E0B2
:1007A00090E013969C938E93129790E080E0DF91F7
:1007B000CF911F910F91FF90EF9008955196ED9179
:1007C000FC91529750968C915097982F90950FB717
:1007D0005E962C915E97122F127021FD6095F89411
:1007E0002081112319F1282B2083E7012197F1F7AC
:1007F00028E0462F50E0308160FF1AC0382B30834C
:10080000E7012197F1F7BA0175956795215089F7AE
:10081000112381F08081892380830FBF5C968D91A5
:100820009C910197F1F781E090E0C1CF2923DCCFC3
:100830003923E5CF9081892BEFCF2091ED023091C4
:10084000EE022817390761F48091EC022091EB0247
:1008500090E0805C9F4F821B91098F7399270895C8
:1008600090E080E008952091ED023091EE0228178B
:100870003907B9F49091EB028091EC02981789F056
:10088000E091EB02F0E0E555FD4F80812091EB0215
:1008900030E02F5F3F4F2F7333272093EB0290E020
:1008A00008958FEF9FEF0895CF92DF92EF92FF921E
:1008B0000F931F93CF93DF93FC01C48121E020931A
:1008C0001E03C093AA021092420310924103848532
:1008D000682B87EB93E00E940D01D0914103D13248
:1008E00008F092C00E9437026B017C018091910355
:1008F000811165C082E08093910381E0809393032E
:100900008FEF809390031092B503D093B403AEEFB2
:10091000B2E0E4E9F3E080E0D81385C01092B603BA
:100920008091B603CC0FC82BC093B603809192037D
:10093000813009F07CC0109292030E9437026B0153
:100940007C018091B6038093BB0080914403909119
:100950004503A0914603B0914703892B8A2B8B2B2B
:1009600099F00E94370200914403109145032091B1
:100970004603309147036C197D098E099F090617BC
:10098000170728073907E0F18091BC0083FDD9CF14
:1009900085EC8093BC000E9437026B017C01809142
:1009A0009103823009F445C0809190038F3F61F13B
:1009B00080919003803241F18091900325C0809115
:1009C000440390914503A0914603B0914703892BBE
:1009D0008A2B8B2B09F48ACF0E94370200914403A3
:1009E0001091450320914603309147036C197D090E
:1009F0008E099F09061717072807390708F076CFD1
:100A0000809143030E94DA01109242031092410345
:100A100010921E03DF91CF911F910F91FF90EF90E5
:100A2000DF90CF9008959D9191938F5F75CF85EE64
:100A3000B0CF8091440390914503A0914603B091BB
:100A40004703892B8A2B8B2B09F4A9CF0E943702ED
:100A500000914403109145032091460330914703D0
:100A60006C197D098E099F09061717072807390792
:100A700008F095CFC5CF089590E080E008950F93DA
:100A80001F93CF938C01C62F0E9454046C2F646077
:100A9000C8010E9454046C2F6B7FC8010E9454044B
:100AA00083EC90E00197F1F7CF911F910F9108959A
:100AB0000F931F93CF93DF938C01D62FC42F607FAA
:100AC000642B0E943F0580E1D89FB00111246C2B5C
:100AD000C801DF91CF911F910F910C943F05CF93E7
:100AE000DF93CDB7DEB728970FB6F894DEBF0FBE01
:100AF000CDBF98E0E6E0F1E0DE01119601900D92A5
:100B00009A95E1F790917404981708F48FEF90E0AC
:100B1000880F991F21E030E02C0F3D1F820F931F9B
:100B2000FC016081606840E08CE694E028960FB696
:100B3000F894DEBF0FBECDBFDF91CF910C94580566
:100B400040E061E08CE694E00E9458058BE39FE171
:100B50000197F1F780917504882319F080E00C94D7
:100B60006F05089541E00E94580581E090E00895E6
:100B700085ED8093BC008091440390914503A09142
:100B80004603B09147030796A11DB11D23E0B6951A
:100B9000A795979587952A95D1F72091BC0024FDBC
:100BA00003C010929103089540914403509145036E
:100BB0006091460370914703452B462B472B69F301
:100BC0000097A105B10541F02AE22A95F1F700C08E
:100BD0000197A109B109E1CF809143030C94DA0197
:100BE000FB0101900020E9F73197AF01461B570B3D
:100BF000DC01ED91FC910280F381E02D09940F93CB
:100C00001F93CF93DF93EC010E94F0058C0160E508
:100C100071E0CE010E94F005800F911FDF91CF910E
:100C20001F910F9108950C94F0050F931F93CF938C
:100C3000DF93EC0188819981009759F02A813B81EB
:100C40002617370730F081E0DF91CF911F910F9188
:100C500008958B016F5F7F4F0E94E30F009759F05B
:100C6000998388831B830A832C813D81232B59F729
:100C7000FC011082E8CF80E0E7CFCF93DF93EC0157
:100C800088819981009711F00E945A0F1982188269
:100C90001D821C821B821A82DF91CF910895EF92F0
:100CA000FF920F931F93CF93DF93EC017B01198287
:100CB00018821B821A821D821C82FB010190002077
:100CC000E9F731978F01061B170BB8010E94150633
:100CD000811109C0CE01DF91CF911F910F91FF903B
:100CE000EF900C943D061D830C83B7018881998198
:100CF000DF91CF911F910F91FF90EF900C94BD1059
:100D0000EF92FF920F931F93CF93DF938C017B01A0
:100D1000EB0109900020E9F72197C61BD70BBE0114
:100D20000E941506811109C0C801DF91CF911F9162
:100D30000F91FF90EF900C943D06F801D583C4838A
:100D4000B70180819181DF91CF911F910F91FF9029
:100D5000EF900C94BD10FC0180819181009711F0FF
:100D60000C945A0F08951F920F920FB60F921124F0
:100D70002F933F934F935F936F937F938F939F93A3
:100D8000AF93BF93EF93FF938091B900887F803634
:100D900009F44AC0F0F5883209F4A7C018F580318B
:100DA00009F49BC0B8F4882309F4F9C0883009F429
:100DB00094C0FF91EF91BF91AF919F918F917F91DF
:100DC0006F915F914F913F912F910F900FBE0F90B8
:100DD0001F901895883109F488C0803251F78093AC
:100DE000900314C0803409F49DC040F48033B9F3FB
:100DF0008833F9F68093900385ECB0C0803509F410
:100E000085C0883509F496C0883499F60E94B805E3
:100E1000D0CF883909F48CC038F5883729F050F4E0
:100E2000883611F0803729F683E080939103109281
:100E30008F0357C0883809F47BC0803919F0803897
:100E400009F0B7CF80918F03803208F071C0E09134
:100E50008F0381E08E0F80938F038091BB00F0E0C1
:100E6000E159FC4F80833DC0803B39F0E0F4803A8B
:100E700009F479C0883A09F09CCF84E0809391030B
:100E800010926C0310926B03E0916903F0916A0376
:100E9000099580916B0381110FC081E080936B03F2
:100EA0001092490309C0803C09F4A6CF883C09F49C
:100EB000A3CF883B09F07DCFE0916C0381E08E0FDA
:100EC00080936C03F0E0E75BFC4F80818093BB0074
:100ED00090916C0380916B0329C08091B60380933D
:100EE000BB0085EC8093BC0064CF9091B5038091EA
:100EF000B403981758F5E091B50381E08E0F809305
:100F0000B503F0E0EC56FC4F8081E9CFE091B503EA
:100F100081E08E0F8093B5038091BB00F0E0EC562A
:100F2000FC4F80839091B5038091B4039817C8F269
:100F300085E8D8CFE091B50381E08E0F8093B503AB
:100F40008091BB00F0E0EC56FC4F808380919303CE
:100F500081115CCF81E08093920384EA8093BC008E
:100F60001092910326CF85EC8093BC0010929103E0
:100F700080918F03803230F4E0918F03F0E0E159EB
:100F8000FC4F108260918F0370E0E0916D03F0914F
:100F90006E038FE693E0099510928F030ACF1092AB
:100FA000900334CF1F920F920FB60F9211242F93FC
:100FB0003F938F939F93AF93BF938091F60290914D
:100FC000F702A091F802B091F9023091F50223E006
:100FD000230F2D3758F50196A11DB11D2093F50261
:100FE0008093F6029093F702A093F802B093F9026F
:100FF0008091FA029091FB02A091FC02B091FD0257
:101000000196A11DB11D8093FA029093FB02A0935B
:10101000FC02B093FD02BF91AF919F918F913F91E0
:101020002F910F900FBE0F901F90189526E8230F59
:101030000296A11DB11DD2CF1F920F920FB60F9233
:1010400011242F933F934F935F936F937F938F93CD
:101050009F93AF93BF93EF93FF9383EC93E00E9432
:101060001A03FF91EF91BF91AF919F918F917F9163
:101070006F915F914F913F912F910F900FBE0F9005
:101080001F9018951F920F920FB60F9211242F9355
:101090008F939F93EF93FF93E091D303F091D40349
:1010A0008081E091D903F091DA0382FD1BC0908129
:1010B0008091DC038F5F8F732091DD03821741F0F5
:1010C000E091DC03F0E0ED53FC4F958F8093DC035F
:1010D000FF91EF919F918F912F910F900FBE0F90E5
:1010E0001F9018958081F4CF1F920F920FB60F9228
:1010F00011242F933F934F935F936F937F938F931D
:101100009F93AF93BF93EF93FF93E091ED02F09124
:10111000EE02309749F0A685B7858585968D91FFBB
:1011200014C09C918923A1F4FF91EF91BF91AF91DD
:101130009F918F917F916F915F914F913F912F91EF
:101140000F900FBE0F901F9018959C91892361F707
:10115000A389B4899C918589809589238C938689FC
:1011600097890197F1F7608D718DA685B7855585B3
:1011700038E020E0CB010197F1F7822F90E09595C0
:101180008795282F4C91452309F02068315091F71D
:10119000868D81FD20958091EC0290E001968F7301
:1011A00099273091EB02381799F0A091EC02B0E04A
:1011B000A555BD4F2C938093EC02828D938D0197A2
:1011C000F1F7A389B4898C919589892B8C93ACCF45
:1011D000868D8160868FF1CF1092BA031092B90389
:1011E00088EE93E0A0E0B0E08093BB039093BC0353
:1011F000A093BD03B093BE0322E131E03093B80366
:101200002093B7031092C6031092C5038093C703BF
:101210009093C803A093C903B093CA0324E231E0BA
:101220003093C4032093C30325EC30E03093D00304
:101230002093CF0324EC30E03093D2032093D103EA
:1012400020EC30E03093D4032093D30321EC30E042
:101250003093D6032093D50322EC30E03093D803AB
:101260002093D70326EC30E03093DA032093D903A0
:101270001092DC031092DD031092DE031092DF0364
:1012800010927C0410927B0480937D0490937E04E2
:10129000A0937F04B093800482E491E090937A0459
:1012A000809379041092900410928F04109292040B
:1012B0001092910410929404109293041092960448
:1012C00010929504609197046E7F6D7F60939704F0
:1012D0006695617081E0682788E00E948E0161E078
:1012E00088E00E94FB01E6EBF0E0E491E0938904E2
:1012F000E2EAF0E0E491F0E0EE0FFF1FE057FF4F6D
:101300008591949190938B0480938A0460E087E0A8
:101310000E94FB018091970481FD04C061E087E099
:101320000E948E0187E080938504E5EBF0E0E49174
:10133000E0938604E1EAF0E0E491F0E0EE0FFF1FB5
:10134000EA57FF4F85919491909388048093870486
:1013500010926F0410926E0486E391E090936D04F6
:1013600080936C041092750487E28093700480E18E
:101370008093760482E0809377041092780463E58A
:1013800071E086E694E00E944F0662E571E080E637
:1013900094E00C944F06CF93DF93CDB7DEB72C9734
:1013A0000FB6F894DEBF0FBECDBF789484B58260CF
:1013B00084BD84B5816084BD85B5826085BD85B5F9
:1013C000816085BD80916E00816080936E00109277
:1013D00081008091810082608093810080918100F2
:1013E0008160809381008091800081608093800083
:1013F0008091B10084608093B1008091B0008160E1
:101400008093B00080917A00846080937A0080910C
:101410007A00826080937A0080917A008160809364
:101420007A0080917A00806880937A001092C100DF
:1014300062E082E00E94FB0161E083E00E94FB0128
:1014400062E084E00E94FB0162E085E00E94FB0113
:1014500060E083E00E948E01E091D303F091D40319
:1014600082E08083E091CF03F091D0031082E0917D
:10147000D103F091D2038FEC80831092DB03E091D3
:10148000D703F091D80386E08083E091D503F091F3
:10149000D603808180618083E091D503F091D603EB
:1014A000808188608083E091D503F091D6038081AC
:1014B00080688083E091D503F091D60380818F7D91
:1014C00080831092940410929304109292041092CC
:1014D00091041092900410928F048DE991E0909302
:1014E00096048093950490918504963108F047C046
:1014F0002DEB30E03093900420938F042BE931E002
:1015000030939204209391042CE231E030939404C0
:10151000209393042091680084E0983048F031E0F3
:101520009E3008F430E081E001C0880F3A95EAF778
:10153000822B809368002DE630E0983050F02BE647
:1015400030E09E3030F02CE630E0963110F030E0A4
:1015500020E030938D0420938C04292F30E09830C4
:1015600008F016C381E001C0880F9A95EAF78093CE
:101570008E0480919504909196040197F1F78091E3
:10158000930490919404892B49F1E091ED02F0913C
:10159000EE0224E0E937F20709F1309739F0A38928
:1015A000B4899C918589809589238C938091970437
:1015B0008E7F809397041092EC021092EB0289E7E1
:1015C00094E09093EE028093ED02E0918C04F09110
:1015D0008D04808190918E04892B808368EE73E066
:1015E00080E090E00E945C021092400310923F0362
:1015F00010924203109241030E94BC0184EB90E0E0
:1016000090936A038093690385EB90E090936E0357
:1016100080936D031092710480917704823018F0EA
:1016200098E0909371048093740462E370E080E02A
:1016300090E00E945C02609178048CE694E00E9445
:10164000540468EE73E080E090E00E945C0260E386
:101650008CE694E00E943F050BE416E4C801019774
:10166000F1F760E38CE694E00E943F05C801019722
:10167000F1F760E38CE694E00E943F0583E592E099
:101680000197F1F760E28CE694E00E943F056091DB
:101690007104606240E08CE694E00E94580584E0AA
:1016A0008093720440E06CE08CE694E00E94580560
:1016B0000E94A00582E08093730440E066E08CE61F
:1016C00094E00E94580540E062E08CE694E00E94BD
:1016D00058058BE39FE10197F1F788E08093780448
:1016E00060E08CE694E00E94540480E00E946F0564
:1016F00064E771E08CE694E00E94130660ED77E009
:1017000080E090E00E945C020E94A00563E871E026
:1017100089E794E00E94FF0568EE73E080E090E0C6
:101720000E945C0266E871E089E794E00E94FF0590
:1017300068EE73E080E090E00E945C0260E971E096
:10174000CE0107960E944F066EEA71E089E794E0A9
:101750000E94FF0564EF71E080E090E00E945C026F
:1017600068EB71E089E794E00E94130666E674E096
:1017700089E794E00E948E0260EC71E089E794E0D2
:101780000E94FF0564EF71E080E090E00E945C023F
:10179000BE01695F7F4F89E794E00E948E0264EF8B
:1017A00071E080E090E00E945C026AE189E794E0E9
:1017B0000E94C10368EB7BE080E090E00E945C0245
:1017C00062EC71E0CE0101960E944F068B859C85EC
:1017D000EF80F8840D811E81080F191FE114F104B8
:1017E00009F4E3C1892B99F0B801CE0101960E945A
:1017F0001506882309F4D9C129813A818D819E81FA
:10180000B701820F931F0E94BD101E830D83BE017E
:101810006F5F7F4F83EC93E00E948E0260E571E082
:1018200083EC93E00E94F005CE0101960E94AB0686
:101830000E94A00580E00E946F056DEC71E08CE6CF
:1018400094E00E941306CE0107960E94AB068824FE
:10185000839480E0E82E80E0F82E992493948FB74B
:10186000F8944090F6025090F7026090F802709061
:10187000F9028FBF82E00E946501892BC9F4809133
:10188000F402811115C09092F4020E94A00580E03C
:101890000E946F0567ED71E08CE694E00E941306EC
:1018A0001092F0021092F1021092F2021092F302E2
:1018B0008091F402882309F456C08091F00290913F
:1018C000F102A091F202B091F302A3019201281B50
:1018D000390B4A0B5B0BDA01C90180369A4EA10520
:1018E000B10508F440C068EE71E089E794E00E9419
:1018F000130666E674E089E794E00E948E026CEEBF
:1019000071E089E794E00E94FF050E94A00580E055
:101910000E946F056EEE71E08CE694E00E94130663
:101920006FEF71E083EC93E00E94FF0560E375E7E1
:1019300080E090E00E945C0268E172E089E794E058
:101940000E94FF0581E00E946F056CE172E08CE669
:1019500094E00E9413064092F0025092F1026092CD
:10196000F2027092F30284E00E946501892BE9F48F
:101970009092EF0261E083E00E948E010E94A00538
:1019800080E00E946F0567E272E08CE694E00E94BE
:10199000130666E372E083EC93E00E94FF056CE2BD
:1019A00071E080E090E00E945C0285E00E946501A9
:1019B000892BE9F41092EF0260E083E00E948E012F
:1019C0000E94A00580E00E946F0569E472E08CE649
:1019D00094E00E94130669E572E083EC93E00E94B4
:1019E000FF056CE271E080E090E00E945C0289E714
:1019F00094E00E941D04892B09F4EBC089E794E070
:101A00000E94330489831A82009164041091650452
:101A10000F5F1F4FB80180E694E00E9415068823EF
:101A200099F0209160043091610480916404909158
:101A30006504BE016F5F7F4F820F931F0E94BD1030
:101A400010936504009364046DE672E0CE01019684
:101A50000E944F068091640490916504892B09F4DB
:101A6000A9C0009160041091610469817A81C80164
:101A70000E94C410009709F49DC0AC01401B510B9B
:101A80008A01CE0101960E94AB060F3F1F4F09F459
:101A900005C1C0906404D0906504C114D10409F458
:101AA0008CC0009160041091610462E270E0C80192
:101AB0000E94A910009709F480C0FC01E01BF10B03
:101AC0008F010F5F1F4F0C151D0508F079C0C090E6
:101AD0006004D090610462E270E0C601800F911F43
:101AE0000E94A910009709F46BC08C199D095C0134
:101AF0008017910710F058018C0162E571E0CE016A
:101B000001960E944F06C0906404D0906504AC1406
:101B1000BD0410F50C151D0508F46801E091600482
:101B2000F0916104EC0DFD1D108110826091600444
:101B3000709161046A0D7B1DCE01019661157105DE
:101B400009F441C00E948006809160049091610474
:101B5000C80ED91EF60110832D813E8180916A0442
:101B600090916B042817390709F08EC089819A81FA
:101B700060916604709167040097B9F16115710571
:101B800029F5232B09F43FC0FC01808190E038C087
:101B90009E3040F42850310981E001C0880F2A9519
:101BA000EAF7E5CC2E503109F7CFCE0101960E941D
:101BB0003D062DCE0FEF1FEF64CF0FEF1FEF81CF4C
:101BC0008FEF9FEF94CF0E943D06BECF0E94B410CE
:101BD00017C0E114F10409F442CE0E9406038823E1
:101BE00009F43DCE0E9400003ACE6115710559F00E
:101BF000232B49F0FB01808190E09195819591091B
:101C0000892B09F041C01092F4021091EF021825BF
:101C10001093EF02612F83E00E948E010E94A005C5
:101C200080E00E946F0561E671E0111102C06AE672
:101C300071E08CE694E00E9413068091EF0261E669
:101C400071E0811102C06AE671E083EC93E00E94CA
:101C5000FF0581E00E946F0564E772E08CE694E086
:101C60000E94130662E872E083EC93E00E94FF0595
:101C700068EE73E080E090E00E945C0268E172E050
:101C800089E794E00E94FF0562E571E080E694E058
:101C90000E948006CE0101960E94AB0680916404EA
:101CA00090916504893C910508F4A1CE62E571E04C
:101CB00080E694E00E9480069ACE80E694E00E943E
:101CC000AB0686E694E00E94AB0682E491E0909336
:101CD0007A04809379048091ED029091EE02895705
:101CE000944071F4E0918C04F0918D049081809186
:101CF0008E048095892380831092EE021092ED026B
:101D000008952F923F924F925F926F927F928F929F
:101D10009F92AF92BF92CF92DF92EF92FF920F937A
:101D20001F93CF93DF93CDB7DEB7CA1BDB0B0FB684
:101D3000F894DEBF0FBECDBF09942A883988488841
:101D40005F846E847D848C849B84AA84B984C884D7
:101D5000DF80EE80FD800C811B81AA81B981CE0FCE
:101D6000D11D0FB6F894DEBF0FBECDBFED010895B3
:101D7000EE0FFF1F0590F491E02D09940F931F9330
:101D8000CF93DF938230910510F482E090E0E091F0
:101D90009A04F0919B0430E020E0B0E0A0E030979E
:101DA00099F42115310509F44AC0281B390B243058
:101DB0003105D8F58A819B816115710589F1FB0197
:101DC00093838283FE0111C040815181028113817E
:101DD00048175907E0F04817590799F4109761F030
:101DE00012960C93129713961C933296CF01DF91A3
:101DF000CF911F910F91089500939A0410939B0423
:101E0000F4CF2115310551F04217530738F0A901DD
:101E1000DB019A01BD01DF01F801C1CFEF01F9CF6C
:101E200090939B0480939A04CDCFFE01E20FF31FA1
:101E3000819391932250310939832883D7CF209100
:101E4000980430919904232B41F4209102013091A0
:101E5000030130939904209398042091000130915C
:101E600001012115310541F42DB73EB74091040120
:101E700050910501241B350BE0919804F0919904D1
:101E8000E217F307A0F42E1B3F0B2817390778F051
:101E9000AC014E5F5F4F2417350748F04E0F5F1FB0
:101EA0005093990440939804819391939FCFF0E0CD
:101EB000E0E09CCFCF93DF930097E9F0FC013297ED
:101EC00013821282A0919A04B0919B04ED0130E03C
:101ED00020E01097A1F420813181820F931F20917F
:101EE0009804309199042817390709F061C0F093DC
:101EF0009904E0939804DF91CF910895EA01CE17F9
:101F0000DF07E8F54A815B819E0141155105B1F774
:101F1000E901FB83EA8349915991C40FD51FEC175E
:101F2000FD0761F4808191810296840F951FE9017C
:101F300099838883828193819B838A83F0E0E0E0A8
:101F400012968D919C9113970097B9F52D913C9124
:101F50001197CD010296820F931F20919804309122
:101F600099042817390739F6309751F510929B04D8
:101F700010929A04B0939904A0939804BCCFD38391
:101F8000C28340815181840F951FC817D90761F41E
:101F90004E5F5F4F88819981480F591F518340835D
:101FA0008A819B81938382832115310509F0B0CF0B
:101FB000F0939B04E0939A049ECFFD01DC01C0CF17
:101FC00013821282D7CFB0E0A0E0E9EEFFE00C94DC
:101FD000830E8C01009751F4CB010E94BE0E8C0140
:101FE000C801CDB7DEB7E0E10C949F0EFC01E60F0F
:101FF000F71F9C0122503109E217F30708F49DC036
:10200000D901CD91DC911197C617D70798F0C5304B
:10201000D10530F3CE0104978617970708F3C61B46
:10202000D70B2297C193D1936D937C93CF010E94DC
:102030005A0FD6CF5B01AC1ABD0A4C018C0E9D1E07
:10204000A0919A04B0919B04512C412CF12CE12CCD
:10205000109731F58091980490919904881599050D
:1020600009F05CC04616570608F058C08091000180
:1020700090910101009741F48DB79EB74091040102
:1020800050910501841B950BE817F90708F055C01E
:10209000F0939904E0939804F90171836083A0CFD1
:1020A0008D919C91119712966C90129713967C903B
:1020B0001397A815B90559F56C0142E0C40ED11C5F
:1020C000CA14DB0420F1AC014A195B09DA0112964B
:1020D000159780F06282738251834083D9016D939A
:1020E0007C93E114F10471F0D7011396FC93EE9305
:1020F000129776CF22968C0F9D1FF90191838083D2
:10210000F301EFCFF0939B04E0939A0469CF481654
:10211000590608F42C017D01D3019ACFCB010E940E
:10212000BE0E7C01009749F0AE01B8010E94A010DC
:10213000C8010E945A0F870153CF10E000E050CF32
:10214000FB01DC0102C001900D9241505040D8F7D4
:102150000895FC018191861721F08823D9F79927EA
:1021600008953197CF010895FB01DC018D91019015
:1021700080190110D9F3990B0895FB01DC0101903E
:102180000D920020E1F70895FB0151915523A9F02C
:10219000BF01DC014D9145174111E1F759F4CD0123
:1021A0000190002049F04D9140154111C9F3FB0108
:1021B0004111EFCF81E090E00197089510E0C2E671
:1021C000D0E004C0FE010E94B80E2196C336D107AC
:0621D000C9F7F894FFCFEF
:1021D60000009C0480000000400014005400000031
:1021E60000000D01E0003C05B600D900C600B700AE
:1021F600000000003C039C02C9028903FA02D802CF
:10220600EC0200000000B2059C023C053B05000004
:102216000000C1039C023C05B6001D043304A9035B
:102226000D0A002B393139383535303431343534EF
:10223600004D6F746F72204F4E004D6F746F722099
:102246004F46460053797374656D20626F6F7469EB
:102256006E670041540041542B434C49503D3100B8
:1022660053797374656D20706F7765726564207538
:102276007020616E64206F6E6C696E652E0041542D
:102286002B434D47463D310041542B434D47533D6B
:102296002200534D532073656E743A2000534D53FC
:1022A6003A2053656E740054414D504552204445C2
:1022B6005445435445442100415444003B00436186
:1022C6006C6C696E67206F776E65722E2E2E0043DA
:1022D600616C6C696E672064756520746F2074612B
:1022E6006D7065722E2E2E004154480043616C6C51
:1022F60020656E646564004D6F746F72204F4E20CA
:102306002842746E29004D6F746F72204F4E206202
:102316007920627574746F6E004D6F746F72204F02
:102326004646202842746E29004D6F746F72204F06
:10233600464620627920627574746F6E002B434C9A
:1023460049503A00416C65727420636C6561726530
:1023560064004D69737365642063616C6C206672FA
:102366006F6D206F776E65723A20616C657274735B
:0A2376002073746F7070656400003E
:00000001FF
